{
  "contractName": "AlertStorage",
  "abi": [
    {
      "anonymous": false,
      "inputs": [
        {
          "indexed": false,
          "internalType": "uint256",
          "name": "id",
          "type": "uint256"
        },
        {
          "indexed": false,
          "internalType": "string",
          "name": "userId",
          "type": "string"
        },
        {
          "indexed": false,
          "internalType": "string",
          "name": "description",
          "type": "string"
        },
        {
          "indexed": false,
          "internalType": "string",
          "name": "riskLevel",
          "type": "string"
        },
        {
          "indexed": false,
          "internalType": "uint256",
          "name": "timestamp",
          "type": "uint256"
        }
      ],
      "name": "AlertRecorded",
      "type": "event"
    },
    {
      "inputs": [
        {
          "internalType": "uint256",
          "name": "",
          "type": "uint256"
        }
      ],
      "name": "alerts",
      "outputs": [
        {
          "internalType": "uint256",
          "name": "id",
          "type": "uint256"
        },
        {
          "internalType": "string",
          "name": "userId",
          "type": "string"
        },
        {
          "internalType": "string",
          "name": "description",
          "type": "string"
        },
        {
          "internalType": "string",
          "name": "riskLevel",
          "type": "string"
        },
        {
          "internalType": "uint256",
          "name": "timestamp",
          "type": "uint256"
        }
      ],
      "stateMutability": "view",
      "type": "function",
      "constant": true
    },
    {
      "inputs": [
        {
          "internalType": "string",
          "name": "_userId",
          "type": "string"
        },
        {
          "internalType": "string",
          "name": "_description",
          "type": "string"
        },
        {
          "internalType": "string",
          "name": "_riskLevel",
          "type": "string"
        }
      ],
      "name": "recordAlert",
      "outputs": [],
      "stateMutability": "nonpayable",
      "type": "function"
    },
    {
      "inputs": [],
      "name": "getAllAlerts",
      "outputs": [
        {
          "components": [
            {
              "internalType": "uint256",
              "name": "id",
              "type": "uint256"
            },
            {
              "internalType": "string",
              "name": "userId",
              "type": "string"
            },
            {
              "internalType": "string",
              "name": "description",
              "type": "string"
            },
            {
              "internalType": "string",
              "name": "riskLevel",
              "type": "string"
            },
            {
              "internalType": "uint256",
              "name": "timestamp",
              "type": "uint256"
            }
          ],
          "internalType": "struct AlertStorage.Alert[]",
          "name": "",
          "type": "tuple[]"
        }
      ],
      "stateMutability": "view",
      "type": "function",
      "constant": true
    }
  ],
  "bytecode": "0x608060405234801561000f575f80fd5b50610dee8061001d5f395ff3fe608060405234801561000f575f80fd5b506004361061003f575f3560e01c8063074a675314610043578063171d073a14610061578063ae45028014610095575b5f80fd5b61004b6100b1565b604051610058919061077c565b60405180910390f35b61007b600480360381019061007691906107d7565b6102cf565b60405161008c959493929190610859565b60405180910390f35b6100af60048036038101906100aa91906109eb565b6104a1565b005b60605f805480602002602001604051908101604052809291908181526020015f905b828210156102c6578382905f5260205f2090600502016040518060a00160405290815f820154815260200160018201805461010d90610abc565b80601f016020809104026020016040519081016040528092919081815260200182805461013990610abc565b80156101845780601f1061015b57610100808354040283529160200191610184565b820191905f5260205f20905b81548152906001019060200180831161016757829003601f168201915b5050505050815260200160028201805461019d90610abc565b80601f01602080910402602001604051908101604052809291908181526020018280546101c990610abc565b80156102145780601f106101eb57610100808354040283529160200191610214565b820191905f5260205f20905b8154815290600101906020018083116101f757829003601f168201915b5050505050815260200160038201805461022d90610abc565b80601f016020809104026020016040519081016040528092919081815260200182805461025990610abc565b80156102a45780601f1061027b576101008083540402835291602001916102a4565b820191905f5260205f20905b81548152906001019060200180831161028757829003601f168201915b50505050508152602001600482015481525050815260200190600101906100d3565b50505050905090565b5f81815481106102dd575f80fd5b905f5260205f2090600502015f91509050805f01549080600101805461030290610abc565b80601f016020809104026020016040519081016040528092919081815260200182805461032e90610abc565b80156103795780601f1061035057610100808354040283529160200191610379565b820191905f5260205f20905b81548152906001019060200180831161035c57829003601f168201915b50505050509080600201805461038e90610abc565b80601f01602080910402602001604051908101604052809291908181526020018280546103ba90610abc565b80156104055780601f106103dc57610100808354040283529160200191610405565b820191905f5260205f20905b8154815290600101906020018083116103e857829003601f168201915b50505050509080600301805461041a90610abc565b80601f016020809104026020016040519081016040528092919081815260200182805461044690610abc565b80156104915780601f1061046857610100808354040283529160200191610491565b820191905f5260205f20905b81548152906001019060200180831161047457829003601f168201915b5050505050908060040154905085565b5f60015f805490506104b39190610b19565b90505f6040518060a0016040528083815260200186815260200185815260200184815260200142815250908060018154018082558091505060019003905f5260205f2090600502015f909190919091505f820151815f015560208201518160010190816105209190610ce9565b5060408201518160020190816105369190610ce9565b50606082015181600301908161054c9190610ce9565b506080820151816004015550507ffc7647607b7ddc16144319c3f554a5ac9a9827079b6a42defb84499c27c2c0ba8185858542604051610590959493929190610859565b60405180910390a150505050565b5f81519050919050565b5f82825260208201905092915050565b5f819050602082019050919050565b5f819050919050565b6105d9816105c7565b82525050565b5f81519050919050565b5f82825260208201905092915050565b5f5b838110156106165780820151818401526020810190506105fb565b5f8484015250505050565b5f601f19601f8301169050919050565b5f61063b826105df565b61064581856105e9565b93506106558185602086016105f9565b61065e81610621565b840191505092915050565b5f60a083015f83015161067e5f8601826105d0565b50602083015184820360208601526106968282610631565b915050604083015184820360408601526106b08282610631565b915050606083015184820360608601526106ca8282610631565b91505060808301516106df60808601826105d0565b508091505092915050565b5f6106f58383610669565b905092915050565b5f602082019050919050565b5f6107138261059e565b61071d81856105a8565b93508360208202850161072f856105b8565b805f5b8581101561076a578484038952815161074b85826106ea565b9450610756836106fd565b925060208a01995050600181019050610732565b50829750879550505050505092915050565b5f6020820190508181035f8301526107948184610709565b905092915050565b5f604051905090565b5f80fd5b5f80fd5b6107b6816105c7565b81146107c0575f80fd5b50565b5f813590506107d1816107ad565b92915050565b5f602082840312156107ec576107eb6107a5565b5b5f6107f9848285016107c3565b91505092915050565b61080b816105c7565b82525050565b5f82825260208201905092915050565b5f61082b826105df565b6108358185610811565b93506108458185602086016105f9565b61084e81610621565b840191505092915050565b5f60a08201905061086c5f830188610802565b818103602083015261087e8187610821565b905081810360408301526108928186610821565b905081810360608301526108a68185610821565b90506108b56080830184610802565b9695505050505050565b5f80fd5b5f80fd5b7f4e487b71000000000000000000000000000000000000000000000000000000005f52604160045260245ffd5b6108fd82610621565b810181811067ffffffffffffffff8211171561091c5761091b6108c7565b5b80604052505050565b5f61092e61079c565b905061093a82826108f4565b919050565b5f67ffffffffffffffff821115610959576109586108c7565b5b61096282610621565b9050602081019050919050565b828183375f83830152505050565b5f61098f61098a8461093f565b610925565b9050828152602081018484840111156109ab576109aa6108c3565b5b6109b684828561096f565b509392505050565b5f82601f8301126109d2576109d16108bf565b5b81356109e284826020860161097d565b91505092915050565b5f805f60608486031215610a0257610a016107a5565b5b5f84013567ffffffffffffffff811115610a1f57610a1e6107a9565b5b610a2b868287016109be565b935050602084013567ffffffffffffffff811115610a4c57610a4b6107a9565b5b610a58868287016109be565b925050604084013567ffffffffffffffff811115610a7957610a786107a9565b5b610a85868287016109be565b9150509250925092565b7f4e487b71000000000000000000000000000000000000000000000000000000005f52602260045260245ffd5b5f6002820490506001821680610ad357607f821691505b602082108103610ae657610ae5610a8f565b5b50919050565b7f4e487b71000000000000000000000000000000000000000000000000000000005f52601160045260245ffd5b5f610b23826105c7565b9150610b2e836105c7565b9250828201905080821115610b4657610b45610aec565b5b92915050565b5f819050815f5260205f209050919050565b5f6020601f8301049050919050565b5f82821b905092915050565b5f60088302610ba87fffffffffffffffffffffffffffffffffffffffffffffffffffffffffffffffff82610b6d565b610bb28683610b6d565b95508019841693508086168417925050509392505050565b5f819050919050565b5f610bed610be8610be3846105c7565b610bca565b6105c7565b9050919050565b5f819050919050565b610c0683610bd3565b610c1a610c1282610bf4565b848454610b79565b825550505050565b5f90565b610c2e610c22565b610c39818484610bfd565b505050565b5b81811015610c5c57610c515f82610c26565b600181019050610c3f565b5050565b601f821115610ca157610c7281610b4c565b610c7b84610b5e565b81016020851015610c8a578190505b610c9e610c9685610b5e565b830182610c3e565b50505b505050565b5f82821c905092915050565b5f610cc15f1984600802610ca6565b1980831691505092915050565b5f610cd98383610cb2565b9150826002028217905092915050565b610cf2826105df565b67ffffffffffffffff811115610d0b57610d0a6108c7565b5b610d158254610abc565b610d20828285610c60565b5f60209050601f831160018114610d51575f8415610d3f578287015190505b610d498582610cce565b865550610db0565b601f198416610d5f86610b4c565b5f5b82811015610d8657848901518255600182019150602085019450602081019050610d61565b86831015610da35784890151610d9f601f891682610cb2565b8355505b6001600288020188555050505b50505050505056fea26469706673582212203c2527954e3328b739985ff1dde6cbc7c662a557078a5cc6e77198ae72b9c7bc64736f6c63430008150033",
  "immutableReferences": {},
  "source": "// SPDX-License-Identifier: MIT\npragma solidity >=0.4.22 <0.9.0;\n\ncontract AlertStorage {\n    struct Alert {\n        uint id;\n        string userId;\n        string description;\n        string riskLevel;\n        uint timestamp;\n    }\n\n    Alert[] public alerts;\n    event AlertRecorded(uint id, string userId, string description, string riskLevel, uint timestamp);\n\n    function recordAlert(string memory _userId, string memory _description, string memory _riskLevel) public {\n        uint alertId = alerts.length + 1;\n        alerts.push(Alert(alertId, _userId, _description, _riskLevel, block.timestamp));\n        emit AlertRecorded(alertId, _userId, _description, _riskLevel, block.timestamp);\n    }\n\n    function getAllAlerts() public view returns (Alert[] memory) {\n        return alerts;\n    }\n}\n",
  "sourcePath": "D:\\Programming\\UEBA\\blockchain_ueba\\contracts\\AlertStorage.sol",
  "compiler": {
    "name": "solc",
    "version": "0.8.21+commit.d9974bed.Emscripten.clang"
  },
  "schemaVersion": "3.4.16",
  "updatedAt": "2025-10-11T04:57:30.759Z",
  "networkType": "ethereum",
  "devdoc": {
    "kind": "dev",
    "methods": {},
    "version": 1
  },
  "userdoc": {
    "kind": "user",
    "methods": {},
    "version": 1
  }
}